{
	"project.sol": {
		"MyToken": {
			"abi": [
				{
					"inputs": [],
					"stateMutability": "nonpayable",
					"type": "constructor"
				},
				{
					"inputs": [
						{
							"internalType": "address",
							"name": "",
							"type": "address"
						}
					],
					"name": "Balance",
					"outputs": [
						{
							"internalType": "uint256",
							"name": "",
							"type": "uint256"
						}
					],
					"stateMutability": "view",
					"type": "function"
				},
				{
					"inputs": [],
					"name": "Max_transaction",
					"outputs": [
						{
							"internalType": "uint256",
							"name": "",
							"type": "uint256"
						}
					],
					"stateMutability": "view",
					"type": "function"
				},
				{
					"inputs": [],
					"name": "Total_Supply",
					"outputs": [
						{
							"internalType": "uint256",
							"name": "",
							"type": "uint256"
						}
					],
					"stateMutability": "view",
					"type": "function"
				},
				{
					"inputs": [
						{
							"internalType": "uint256",
							"name": "_newMax",
							"type": "uint256"
						}
					],
					"name": "changeMaxTransaction",
					"outputs": [],
					"stateMutability": "nonpayable",
					"type": "function"
				},
				{
					"inputs": [
						{
							"internalType": "address",
							"name": "_address",
							"type": "address"
						},
						{
							"internalType": "uint256",
							"name": "_number",
							"type": "uint256"
						}
					],
					"name": "deposit",
					"outputs": [],
					"stateMutability": "nonpayable",
					"type": "function"
				},
				{
					"inputs": [],
					"name": "owner",
					"outputs": [
						{
							"internalType": "address",
							"name": "",
							"type": "address"
						}
					],
					"stateMutability": "view",
					"type": "function"
				},
				{
					"inputs": [
						{
							"internalType": "address",
							"name": "_to",
							"type": "address"
						},
						{
							"internalType": "uint256",
							"name": "_amount",
							"type": "uint256"
						}
					],
					"name": "transfer",
					"outputs": [],
					"stateMutability": "nonpayable",
					"type": "function"
				},
				{
					"inputs": [
						{
							"internalType": "address",
							"name": "_address",
							"type": "address"
						},
						{
							"internalType": "uint256",
							"name": "_number",
							"type": "uint256"
						}
					],
					"name": "withdraw",
					"outputs": [],
					"stateMutability": "nonpayable",
					"type": "function"
				}
			],
			"devdoc": {
				"kind": "dev",
				"methods": {},
				"version": 1
			},
			"evm": {
				"assembly": "    /* \"project.sol\":60:1453  contract MyToken {... */\n  mstore(0x40, 0x80)\n    /* \"project.sol\":113:114  0 */\n  0x00\n    /* \"project.sol\":86:114  uint public Total_Supply = 0 */\n  dup1\n  sstore\n    /* \"project.sol\":151:154  800 */\n  0x0320\n    /* \"project.sol\":121:154  uint public Max_transaction = 800 */\n  0x01\n  sstore\n    /* \"project.sol\":238:323  constructor() {... */\n  callvalue\n  dup1\n  iszero\n  tag_1\n  jumpi\n  0x00\n  dup1\n  revert\ntag_1:\n  pop\n    /* \"project.sol\":271:281  msg.sender */\n  caller\n    /* \"project.sol\":263:268  owner */\n  0x02\n  0x00\n    /* \"project.sol\":263:281  owner = msg.sender */\n  0x0100\n  exp\n  dup2\n  sload\n  dup2\n  0xffffffffffffffffffffffffffffffffffffffff\n  mul\n  not\n  and\n  swap1\n  dup4\n  0xffffffffffffffffffffffffffffffffffffffff\n  and\n  mul\n  or\n  swap1\n  sstore\n  pop\n    /* \"project.sol\":60:1453  contract MyToken {... */\n  dataSize(sub_0)\n  dup1\n  dataOffset(sub_0)\n  0x00\n  codecopy\n  0x00\n  return\nstop\n\nsub_0: assembly {\n        /* \"project.sol\":60:1453  contract MyToken {... */\n      mstore(0x40, 0x80)\n      callvalue\n      dup1\n      iszero\n      tag_1\n      jumpi\n      0x00\n      dup1\n      revert\n    tag_1:\n      pop\n      jumpi(tag_2, lt(calldatasize, 0x04))\n      shr(0xe0, calldataload(0x00))\n      dup1\n      0xa9059cbb\n      gt\n      tag_11\n      jumpi\n      dup1\n      0xa9059cbb\n      eq\n      tag_7\n      jumpi\n      dup1\n      0xcd73ab02\n      eq\n      tag_8\n      jumpi\n      dup1\n      0xd98fc897\n      eq\n      tag_9\n      jumpi\n      dup1\n      0xf3fef3a3\n      eq\n      tag_10\n      jumpi\n      jump(tag_2)\n    tag_11:\n      dup1\n      0x239fcf0f\n      eq\n      tag_3\n      jumpi\n      dup1\n      0x306d6e87\n      eq\n      tag_4\n      jumpi\n      dup1\n      0x47e7ef24\n      eq\n      tag_5\n      jumpi\n      dup1\n      0x8da5cb5b\n      eq\n      tag_6\n      jumpi\n    tag_2:\n      0x00\n      dup1\n      revert\n        /* \"project.sol\":190:229  mapping(address => uint) public Balance */\n    tag_3:\n      tag_12\n      0x04\n      dup1\n      calldatasize\n      sub\n      dup2\n      add\n      swap1\n      tag_13\n      swap2\n      swap1\n      tag_14\n      jump\t// in\n    tag_13:\n      tag_15\n      jump\t// in\n    tag_12:\n      mload(0x40)\n      tag_16\n      swap2\n      swap1\n      tag_17\n      jump\t// in\n    tag_16:\n      mload(0x40)\n      dup1\n      swap2\n      sub\n      swap1\n      return\n        /* \"project.sol\":86:114  uint public Total_Supply = 0 */\n    tag_4:\n      tag_18\n      tag_19\n      jump\t// in\n    tag_18:\n      mload(0x40)\n      tag_20\n      swap2\n      swap1\n      tag_17\n      jump\t// in\n    tag_20:\n      mload(0x40)\n      dup1\n      swap2\n      sub\n      swap1\n      return\n        /* \"project.sol\":465:666  function deposit(address _address, uint _number) public {... */\n    tag_5:\n      tag_21\n      0x04\n      dup1\n      calldatasize\n      sub\n      dup2\n      add\n      swap1\n      tag_22\n      swap2\n      swap1\n      tag_23\n      jump\t// in\n    tag_22:\n      tag_24\n      jump\t// in\n    tag_21:\n      stop\n        /* \"project.sol\":161:181  address public owner */\n    tag_6:\n      tag_25\n      tag_26\n      jump\t// in\n    tag_25:\n      mload(0x40)\n      tag_27\n      swap2\n      swap1\n      tag_28\n      jump\t// in\n    tag_27:\n      mload(0x40)\n      dup1\n      swap2\n      sub\n      swap1\n      return\n        /* \"project.sol\":1054:1329  function transfer(address _to, uint _amount) public {... */\n    tag_7:\n      tag_29\n      0x04\n      dup1\n      calldatasize\n      sub\n      dup2\n      add\n      swap1\n      tag_30\n      swap2\n      swap1\n      tag_23\n      jump\t// in\n    tag_30:\n      tag_31\n      jump\t// in\n    tag_29:\n      stop\n        /* \"project.sol\":1337:1442  function changeMaxTransaction(uint _newMax) public onlyOwner {... */\n    tag_8:\n      tag_32\n      0x04\n      dup1\n      calldatasize\n      sub\n      dup2\n      add\n      swap1\n      tag_33\n      swap2\n      swap1\n      tag_34\n      jump\t// in\n    tag_33:\n      tag_35\n      jump\t// in\n    tag_32:\n      stop\n        /* \"project.sol\":121:154  uint public Max_transaction = 800 */\n    tag_9:\n      tag_36\n      tag_37\n      jump\t// in\n    tag_36:\n      mload(0x40)\n      tag_38\n      swap2\n      swap1\n      tag_17\n      jump\t// in\n    tag_38:\n      mload(0x40)\n      dup1\n      swap2\n      sub\n      swap1\n      return\n        /* \"project.sol\":674:1046  function withdraw(address _address, uint _number) public {... */\n    tag_10:\n      tag_39\n      0x04\n      dup1\n      calldatasize\n      sub\n      dup2\n      add\n      swap1\n      tag_40\n      swap2\n      swap1\n      tag_23\n      jump\t// in\n    tag_40:\n      tag_41\n      jump\t// in\n    tag_39:\n      stop\n        /* \"project.sol\":190:229  mapping(address => uint) public Balance */\n    tag_15:\n      mstore(0x20, 0x03)\n      dup1\n      0x00\n      mstore\n      keccak256(0x00, 0x40)\n      0x00\n      swap2\n      pop\n      swap1\n      pop\n      sload\n      dup2\n      jump\t// out\n        /* \"project.sol\":86:114  uint public Total_Supply = 0 */\n    tag_19:\n      sload(0x00)\n      dup2\n      jump\t// out\n        /* \"project.sol\":465:666  function deposit(address _address, uint _number) public {... */\n    tag_24:\n        /* \"project.sol\":550:551  0 */\n      0x00\n        /* \"project.sol\":540:547  _number */\n      dup2\n        /* \"project.sol\":540:551  _number > 0 */\n      gt\n        /* \"project.sol\":532:585  require(_number > 0, \"Amount must be greater than 0\") */\n      tag_43\n      jumpi\n      mload(0x40)\n      0x08c379a000000000000000000000000000000000000000000000000000000000\n      dup2\n      mstore\n      0x04\n      add\n      tag_44\n      swap1\n      tag_45\n      jump\t// in\n    tag_44:\n      mload(0x40)\n      dup1\n      swap2\n      sub\n      swap1\n      revert\n    tag_43:\n        /* \"project.sol\":612:619  _number */\n      dup1\n        /* \"project.sol\":596:608  Total_Supply */\n      0x00\n      dup1\n        /* \"project.sol\":596:619  Total_Supply += _number */\n      dup3\n      dup3\n      sload\n      tag_46\n      swap2\n      swap1\n      tag_47\n      jump\t// in\n    tag_46:\n      swap3\n      pop\n      pop\n      dup2\n      swap1\n      sstore\n      pop\n        /* \"project.sol\":651:658  _number */\n      dup1\n        /* \"project.sol\":630:637  Balance */\n      0x03\n        /* \"project.sol\":630:647  Balance[_address] */\n      0x00\n        /* \"project.sol\":638:646  _address */\n      dup5\n        /* \"project.sol\":630:647  Balance[_address] */\n      0xffffffffffffffffffffffffffffffffffffffff\n      and\n      0xffffffffffffffffffffffffffffffffffffffff\n      and\n      dup2\n      mstore\n      0x20\n      add\n      swap1\n      dup2\n      mstore\n      0x20\n      add\n      0x00\n      keccak256\n      0x00\n        /* \"project.sol\":630:658  Balance[_address] += _number */\n      dup3\n      dup3\n      sload\n      tag_48\n      swap2\n      swap1\n      tag_47\n      jump\t// in\n    tag_48:\n      swap3\n      pop\n      pop\n      dup2\n      swap1\n      sstore\n      pop\n        /* \"project.sol\":465:666  function deposit(address _address, uint _number) public {... */\n      pop\n      pop\n      jump\t// out\n        /* \"project.sol\":161:181  address public owner */\n    tag_26:\n      0x02\n      0x00\n      swap1\n      sload\n      swap1\n      0x0100\n      exp\n      swap1\n      div\n      0xffffffffffffffffffffffffffffffffffffffff\n      and\n      dup2\n      jump\t// out\n        /* \"project.sol\":1054:1329  function transfer(address _to, uint _amount) public {... */\n    tag_31:\n        /* \"project.sol\":1135:1136  0 */\n      0x00\n        /* \"project.sol\":1125:1132  _amount */\n      dup2\n        /* \"project.sol\":1125:1136  _amount > 0 */\n      gt\n        /* \"project.sol\":1117:1170  require(_amount > 0, \"Amount must be greater than 0\") */\n      tag_50\n      jumpi\n      mload(0x40)\n      0x08c379a000000000000000000000000000000000000000000000000000000000\n      dup2\n      mstore\n      0x04\n      add\n      tag_51\n      swap1\n      tag_45\n      jump\t// in\n    tag_51:\n      mload(0x40)\n      dup1\n      swap2\n      sub\n      swap1\n      revert\n    tag_50:\n        /* \"project.sol\":1212:1219  _amount */\n      dup1\n        /* \"project.sol\":1189:1196  Balance */\n      0x03\n        /* \"project.sol\":1189:1208  Balance[msg.sender] */\n      0x00\n        /* \"project.sol\":1197:1207  msg.sender */\n      caller\n        /* \"project.sol\":1189:1208  Balance[msg.sender] */\n      0xffffffffffffffffffffffffffffffffffffffff\n      and\n      0xffffffffffffffffffffffffffffffffffffffff\n      and\n      dup2\n      mstore\n      0x20\n      add\n      swap1\n      dup2\n      mstore\n      0x20\n      add\n      0x00\n      keccak256\n      sload\n        /* \"project.sol\":1189:1219  Balance[msg.sender] >= _amount */\n      lt\n      iszero\n        /* \"project.sol\":1181:1244  require(Balance[msg.sender] >= _amount, \"Insufficient balance\") */\n      tag_52\n      jumpi\n      mload(0x40)\n      0x08c379a000000000000000000000000000000000000000000000000000000000\n      dup2\n      mstore\n      0x04\n      add\n      tag_53\n      swap1\n      tag_54\n      jump\t// in\n    tag_53:\n      mload(0x40)\n      dup1\n      swap2\n      sub\n      swap1\n      revert\n    tag_52:\n        /* \"project.sol\":1280:1287  _amount */\n      dup1\n        /* \"project.sol\":1257:1264  Balance */\n      0x03\n        /* \"project.sol\":1257:1276  Balance[msg.sender] */\n      0x00\n        /* \"project.sol\":1265:1275  msg.sender */\n      caller\n        /* \"project.sol\":1257:1276  Balance[msg.sender] */\n      0xffffffffffffffffffffffffffffffffffffffff\n      and\n      0xffffffffffffffffffffffffffffffffffffffff\n      and\n      dup2\n      mstore\n      0x20\n      add\n      swap1\n      dup2\n      mstore\n      0x20\n      add\n      0x00\n      keccak256\n      0x00\n        /* \"project.sol\":1257:1287  Balance[msg.sender] -= _amount */\n      dup3\n      dup3\n      sload\n      tag_55\n      swap2\n      swap1\n      tag_56\n      jump\t// in\n    tag_55:\n      swap3\n      pop\n      pop\n      dup2\n      swap1\n      sstore\n      pop\n        /* \"project.sol\":1314:1321  _amount */\n      dup1\n        /* \"project.sol\":1298:1305  Balance */\n      0x03\n        /* \"project.sol\":1298:1310  Balance[_to] */\n      0x00\n        /* \"project.sol\":1306:1309  _to */\n      dup5\n        /* \"project.sol\":1298:1310  Balance[_to] */\n      0xffffffffffffffffffffffffffffffffffffffff\n      and\n      0xffffffffffffffffffffffffffffffffffffffff\n      and\n      dup2\n      mstore\n      0x20\n      add\n      swap1\n      dup2\n      mstore\n      0x20\n      add\n      0x00\n      keccak256\n      0x00\n        /* \"project.sol\":1298:1321  Balance[_to] += _amount */\n      dup3\n      dup3\n      sload\n      tag_57\n      swap2\n      swap1\n      tag_47\n      jump\t// in\n    tag_57:\n      swap3\n      pop\n      pop\n      dup2\n      swap1\n      sstore\n      pop\n        /* \"project.sol\":1054:1329  function transfer(address _to, uint _amount) public {... */\n      pop\n      pop\n      jump\t// out\n        /* \"project.sol\":1337:1442  function changeMaxTransaction(uint _newMax) public onlyOwner {... */\n    tag_35:\n        /* \"project.sol\":385:390  owner */\n      0x02\n      0x00\n      swap1\n      sload\n      swap1\n      0x0100\n      exp\n      swap1\n      div\n      0xffffffffffffffffffffffffffffffffffffffff\n      and\n        /* \"project.sol\":371:390  msg.sender == owner */\n      0xffffffffffffffffffffffffffffffffffffffff\n      and\n        /* \"project.sol\":371:381  msg.sender */\n      caller\n        /* \"project.sol\":371:390  msg.sender == owner */\n      0xffffffffffffffffffffffffffffffffffffffff\n      and\n      eq\n        /* \"project.sol\":363:437  require(msg.sender == owner, \"Only contract owner can call this function\") */\n      tag_59\n      jumpi\n      mload(0x40)\n      0x08c379a000000000000000000000000000000000000000000000000000000000\n      dup2\n      mstore\n      0x04\n      add\n      tag_60\n      swap1\n      tag_61\n      jump\t// in\n    tag_60:\n      mload(0x40)\n      dup1\n      swap2\n      sub\n      swap1\n      revert\n    tag_59:\n        /* \"project.sol\":1427:1434  _newMax */\n      dup1\n        /* \"project.sol\":1409:1424  Max_transaction */\n      0x01\n        /* \"project.sol\":1409:1434  Max_transaction = _newMax */\n      dup2\n      swap1\n      sstore\n      pop\n        /* \"project.sol\":1337:1442  function changeMaxTransaction(uint _newMax) public onlyOwner {... */\n      pop\n      jump\t// out\n        /* \"project.sol\":121:154  uint public Max_transaction = 800 */\n    tag_37:\n      sload(0x01)\n      dup2\n      jump\t// out\n        /* \"project.sol\":674:1046  function withdraw(address _address, uint _number) public {... */\n    tag_41:\n        /* \"project.sol\":771:778  _number */\n      dup1\n        /* \"project.sol\":750:757  Balance */\n      0x03\n        /* \"project.sol\":750:767  Balance[_address] */\n      0x00\n        /* \"project.sol\":758:766  _address */\n      dup5\n        /* \"project.sol\":750:767  Balance[_address] */\n      0xffffffffffffffffffffffffffffffffffffffff\n      and\n      0xffffffffffffffffffffffffffffffffffffffff\n      and\n      dup2\n      mstore\n      0x20\n      add\n      swap1\n      dup2\n      mstore\n      0x20\n      add\n      0x00\n      keccak256\n      sload\n        /* \"project.sol\":750:778  Balance[_address] >= _number */\n      lt\n      iszero\n        /* \"project.sol\":742:803  require(Balance[_address] >= _number, \"Insufficient balance\") */\n      tag_64\n      jumpi\n      mload(0x40)\n      0x08c379a000000000000000000000000000000000000000000000000000000000\n      dup2\n      mstore\n      0x04\n      add\n      tag_65\n      swap1\n      tag_54\n      jump\t// in\n    tag_65:\n      mload(0x40)\n      dup1\n      swap2\n      sub\n      swap1\n      revert\n    tag_64:\n        /* \"project.sol\":830:845  Max_transaction */\n      sload(0x01)\n        /* \"project.sol\":820:827  _number */\n      dup2\n        /* \"project.sol\":820:845  _number > Max_transaction */\n      gt\n        /* \"project.sol\":816:926  if (_number > Max_transaction) {... */\n      iszero\n      tag_66\n      jumpi\n        /* \"project.sol\":862:914  revert(\"Transaction amount exceeds maximum allowed\") */\n      mload(0x40)\n      0x08c379a000000000000000000000000000000000000000000000000000000000\n      dup2\n      mstore\n      0x04\n      add\n      tag_67\n      swap1\n      tag_68\n      jump\t// in\n    tag_67:\n      mload(0x40)\n      dup1\n      swap2\n      sub\n      swap1\n      revert\n        /* \"project.sol\":816:926  if (_number > Max_transaction) {... */\n    tag_66:\n        /* \"project.sol\":954:961  _number */\n      dup1\n        /* \"project.sol\":938:950  Total_Supply */\n      0x00\n      dup1\n        /* \"project.sol\":938:961  Total_Supply -= _number */\n      dup3\n      dup3\n      sload\n      tag_69\n      swap2\n      swap1\n      tag_56\n      jump\t// in\n    tag_69:\n      swap3\n      pop\n      pop\n      dup2\n      swap1\n      sstore\n      pop\n        /* \"project.sol\":993:1000  _number */\n      dup1\n        /* \"project.sol\":972:979  Balance */\n      0x03\n        /* \"project.sol\":972:989  Balance[_address] */\n      0x00\n        /* \"project.sol\":980:988  _address */\n      dup5\n        /* \"project.sol\":972:989  Balance[_address] */\n      0xffffffffffffffffffffffffffffffffffffffff\n      and\n      0xffffffffffffffffffffffffffffffffffffffff\n      and\n      dup2\n      mstore\n      0x20\n      add\n      swap1\n      dup2\n      mstore\n      0x20\n      add\n      0x00\n      keccak256\n      0x00\n        /* \"project.sol\":972:1000  Balance[_address] -= _number */\n      dup3\n      dup3\n      sload\n      tag_70\n      swap2\n      swap1\n      tag_56\n      jump\t// in\n    tag_70:\n      swap3\n      pop\n      pop\n      dup2\n      swap1\n      sstore\n      pop\n        /* \"project.sol\":1036:1037  0 */\n      0x00\n        /* \"project.sol\":1020:1032  Total_Supply */\n      dup1\n      sload\n        /* \"project.sol\":1020:1037  Total_Supply >= 0 */\n      lt\n      iszero\n        /* \"project.sol\":1013:1038  assert(Total_Supply >= 0) */\n      tag_71\n      jumpi\n      tag_72\n      tag_73\n      jump\t// in\n    tag_72:\n    tag_71:\n        /* \"project.sol\":674:1046  function withdraw(address _address, uint _number) public {... */\n      pop\n      pop\n      jump\t// out\n        /* \"#utility.yul\":88:205   */\n    tag_75:\n        /* \"#utility.yul\":197:198   */\n      0x00\n        /* \"#utility.yul\":194:195   */\n      dup1\n        /* \"#utility.yul\":187:199   */\n      revert\n        /* \"#utility.yul\":334:460   */\n    tag_77:\n        /* \"#utility.yul\":371:378   */\n      0x00\n        /* \"#utility.yul\":411:453   */\n      0xffffffffffffffffffffffffffffffffffffffff\n        /* \"#utility.yul\":404:409   */\n      dup3\n        /* \"#utility.yul\":400:454   */\n      and\n        /* \"#utility.yul\":389:454   */\n      swap1\n      pop\n        /* \"#utility.yul\":334:460   */\n      swap2\n      swap1\n      pop\n      jump\t// out\n        /* \"#utility.yul\":466:562   */\n    tag_78:\n        /* \"#utility.yul\":503:510   */\n      0x00\n        /* \"#utility.yul\":532:556   */\n      tag_102\n        /* \"#utility.yul\":550:555   */\n      dup3\n        /* \"#utility.yul\":532:556   */\n      tag_77\n      jump\t// in\n    tag_102:\n        /* \"#utility.yul\":521:556   */\n      swap1\n      pop\n        /* \"#utility.yul\":466:562   */\n      swap2\n      swap1\n      pop\n      jump\t// out\n        /* \"#utility.yul\":568:690   */\n    tag_79:\n        /* \"#utility.yul\":641:665   */\n      tag_104\n        /* \"#utility.yul\":659:664   */\n      dup2\n        /* \"#utility.yul\":641:665   */\n      tag_78\n      jump\t// in\n    tag_104:\n        /* \"#utility.yul\":634:639   */\n      dup2\n        /* \"#utility.yul\":631:666   */\n      eq\n        /* \"#utility.yul\":621:684   */\n      tag_105\n      jumpi\n        /* \"#utility.yul\":680:681   */\n      0x00\n        /* \"#utility.yul\":677:678   */\n      dup1\n        /* \"#utility.yul\":670:682   */\n      revert\n        /* \"#utility.yul\":621:684   */\n    tag_105:\n        /* \"#utility.yul\":568:690   */\n      pop\n      jump\t// out\n        /* \"#utility.yul\":696:835   */\n    tag_80:\n        /* \"#utility.yul\":742:747   */\n      0x00\n        /* \"#utility.yul\":780:786   */\n      dup2\n        /* \"#utility.yul\":767:787   */\n      calldataload\n        /* \"#utility.yul\":758:787   */\n      swap1\n      pop\n        /* \"#utility.yul\":796:829   */\n      tag_107\n        /* \"#utility.yul\":823:828   */\n      dup2\n        /* \"#utility.yul\":796:829   */\n      tag_79\n      jump\t// in\n    tag_107:\n        /* \"#utility.yul\":696:835   */\n      swap3\n      swap2\n      pop\n      pop\n      jump\t// out\n        /* \"#utility.yul\":841:1170   */\n    tag_14:\n        /* \"#utility.yul\":900:906   */\n      0x00\n        /* \"#utility.yul\":949:951   */\n      0x20\n        /* \"#utility.yul\":937:946   */\n      dup3\n        /* \"#utility.yul\":928:935   */\n      dup5\n        /* \"#utility.yul\":924:947   */\n      sub\n        /* \"#utility.yul\":920:952   */\n      slt\n        /* \"#utility.yul\":917:1036   */\n      iszero\n      tag_109\n      jumpi\n        /* \"#utility.yul\":955:1034   */\n      tag_110\n      tag_75\n      jump\t// in\n    tag_110:\n        /* \"#utility.yul\":917:1036   */\n    tag_109:\n        /* \"#utility.yul\":1075:1076   */\n      0x00\n        /* \"#utility.yul\":1100:1153   */\n      tag_111\n        /* \"#utility.yul\":1145:1152   */\n      dup5\n        /* \"#utility.yul\":1136:1142   */\n      dup3\n        /* \"#utility.yul\":1125:1134   */\n      dup6\n        /* \"#utility.yul\":1121:1143   */\n      add\n        /* \"#utility.yul\":1100:1153   */\n      tag_80\n      jump\t// in\n    tag_111:\n        /* \"#utility.yul\":1090:1153   */\n      swap2\n      pop\n        /* \"#utility.yul\":1046:1163   */\n      pop\n        /* \"#utility.yul\":841:1170   */\n      swap3\n      swap2\n      pop\n      pop\n      jump\t// out\n        /* \"#utility.yul\":1176:1253   */\n    tag_81:\n        /* \"#utility.yul\":1213:1220   */\n      0x00\n        /* \"#utility.yul\":1242:1247   */\n      dup2\n        /* \"#utility.yul\":1231:1247   */\n      swap1\n      pop\n        /* \"#utility.yul\":1176:1253   */\n      swap2\n      swap1\n      pop\n      jump\t// out\n        /* \"#utility.yul\":1259:1377   */\n    tag_82:\n        /* \"#utility.yul\":1346:1370   */\n      tag_114\n        /* \"#utility.yul\":1364:1369   */\n      dup2\n        /* \"#utility.yul\":1346:1370   */\n      tag_81\n      jump\t// in\n    tag_114:\n        /* \"#utility.yul\":1341:1344   */\n      dup3\n        /* \"#utility.yul\":1334:1371   */\n      mstore\n        /* \"#utility.yul\":1259:1377   */\n      pop\n      pop\n      jump\t// out\n        /* \"#utility.yul\":1383:1605   */\n    tag_17:\n        /* \"#utility.yul\":1476:1480   */\n      0x00\n        /* \"#utility.yul\":1514:1516   */\n      0x20\n        /* \"#utility.yul\":1503:1512   */\n      dup3\n        /* \"#utility.yul\":1499:1517   */\n      add\n        /* \"#utility.yul\":1491:1517   */\n      swap1\n      pop\n        /* \"#utility.yul\":1527:1598   */\n      tag_116\n        /* \"#utility.yul\":1595:1596   */\n      0x00\n        /* \"#utility.yul\":1584:1593   */\n      dup4\n        /* \"#utility.yul\":1580:1597   */\n      add\n        /* \"#utility.yul\":1571:1577   */\n      dup5\n        /* \"#utility.yul\":1527:1598   */\n      tag_82\n      jump\t// in\n    tag_116:\n        /* \"#utility.yul\":1383:1605   */\n      swap3\n      swap2\n      pop\n      pop\n      jump\t// out\n        /* \"#utility.yul\":1611:1733   */\n    tag_83:\n        /* \"#utility.yul\":1684:1708   */\n      tag_118\n        /* \"#utility.yul\":1702:1707   */\n      dup2\n        /* \"#utility.yul\":1684:1708   */\n      tag_81\n      jump\t// in\n    tag_118:\n        /* \"#utility.yul\":1677:1682   */\n      dup2\n        /* \"#utility.yul\":1674:1709   */\n      eq\n        /* \"#utility.yul\":1664:1727   */\n      tag_119\n      jumpi\n        /* \"#utility.yul\":1723:1724   */\n      0x00\n        /* \"#utility.yul\":1720:1721   */\n      dup1\n        /* \"#utility.yul\":1713:1725   */\n      revert\n        /* \"#utility.yul\":1664:1727   */\n    tag_119:\n        /* \"#utility.yul\":1611:1733   */\n      pop\n      jump\t// out\n        /* \"#utility.yul\":1739:1878   */\n    tag_84:\n        /* \"#utility.yul\":1785:1790   */\n      0x00\n        /* \"#utility.yul\":1823:1829   */\n      dup2\n        /* \"#utility.yul\":1810:1830   */\n      calldataload\n        /* \"#utility.yul\":1801:1830   */\n      swap1\n      pop\n        /* \"#utility.yul\":1839:1872   */\n      tag_121\n        /* \"#utility.yul\":1866:1871   */\n      dup2\n        /* \"#utility.yul\":1839:1872   */\n      tag_83\n      jump\t// in\n    tag_121:\n        /* \"#utility.yul\":1739:1878   */\n      swap3\n      swap2\n      pop\n      pop\n      jump\t// out\n        /* \"#utility.yul\":1884:2358   */\n    tag_23:\n        /* \"#utility.yul\":1952:1958   */\n      0x00\n        /* \"#utility.yul\":1960:1966   */\n      dup1\n        /* \"#utility.yul\":2009:2011   */\n      0x40\n        /* \"#utility.yul\":1997:2006   */\n      dup4\n        /* \"#utility.yul\":1988:1995   */\n      dup6\n        /* \"#utility.yul\":1984:2007   */\n      sub\n        /* \"#utility.yul\":1980:2012   */\n      slt\n        /* \"#utility.yul\":1977:2096   */\n      iszero\n      tag_123\n      jumpi\n        /* \"#utility.yul\":2015:2094   */\n      tag_124\n      tag_75\n      jump\t// in\n    tag_124:\n        /* \"#utility.yul\":1977:2096   */\n    tag_123:\n        /* \"#utility.yul\":2135:2136   */\n      0x00\n        /* \"#utility.yul\":2160:2213   */\n      tag_125\n        /* \"#utility.yul\":2205:2212   */\n      dup6\n        /* \"#utility.yul\":2196:2202   */\n      dup3\n        /* \"#utility.yul\":2185:2194   */\n      dup7\n        /* \"#utility.yul\":2181:2203   */\n      add\n        /* \"#utility.yul\":2160:2213   */\n      tag_80\n      jump\t// in\n    tag_125:\n        /* \"#utility.yul\":2150:2213   */\n      swap3\n      pop\n        /* \"#utility.yul\":2106:2223   */\n      pop\n        /* \"#utility.yul\":2262:2264   */\n      0x20\n        /* \"#utility.yul\":2288:2341   */\n      tag_126\n        /* \"#utility.yul\":2333:2340   */\n      dup6\n        /* \"#utility.yul\":2324:2330   */\n      dup3\n        /* \"#utility.yul\":2313:2322   */\n      dup7\n        /* \"#utility.yul\":2309:2331   */\n      add\n        /* \"#utility.yul\":2288:2341   */\n      tag_84\n      jump\t// in\n    tag_126:\n        /* \"#utility.yul\":2278:2341   */\n      swap2\n      pop\n        /* \"#utility.yul\":2233:2351   */\n      pop\n        /* \"#utility.yul\":1884:2358   */\n      swap3\n      pop\n      swap3\n      swap1\n      pop\n      jump\t// out\n        /* \"#utility.yul\":2364:2482   */\n    tag_85:\n        /* \"#utility.yul\":2451:2475   */\n      tag_128\n        /* \"#utility.yul\":2469:2474   */\n      dup2\n        /* \"#utility.yul\":2451:2475   */\n      tag_78\n      jump\t// in\n    tag_128:\n        /* \"#utility.yul\":2446:2449   */\n      dup3\n        /* \"#utility.yul\":2439:2476   */\n      mstore\n        /* \"#utility.yul\":2364:2482   */\n      pop\n      pop\n      jump\t// out\n        /* \"#utility.yul\":2488:2710   */\n    tag_28:\n        /* \"#utility.yul\":2581:2585   */\n      0x00\n        /* \"#utility.yul\":2619:2621   */\n      0x20\n        /* \"#utility.yul\":2608:2617   */\n      dup3\n        /* \"#utility.yul\":2604:2622   */\n      add\n        /* \"#utility.yul\":2596:2622   */\n      swap1\n      pop\n        /* \"#utility.yul\":2632:2703   */\n      tag_130\n        /* \"#utility.yul\":2700:2701   */\n      0x00\n        /* \"#utility.yul\":2689:2698   */\n      dup4\n        /* \"#utility.yul\":2685:2702   */\n      add\n        /* \"#utility.yul\":2676:2682   */\n      dup5\n        /* \"#utility.yul\":2632:2703   */\n      tag_85\n      jump\t// in\n    tag_130:\n        /* \"#utility.yul\":2488:2710   */\n      swap3\n      swap2\n      pop\n      pop\n      jump\t// out\n        /* \"#utility.yul\":2716:3045   */\n    tag_34:\n        /* \"#utility.yul\":2775:2781   */\n      0x00\n        /* \"#utility.yul\":2824:2826   */\n      0x20\n        /* \"#utility.yul\":2812:2821   */\n      dup3\n        /* \"#utility.yul\":2803:2810   */\n      dup5\n        /* \"#utility.yul\":2799:2822   */\n      sub\n        /* \"#utility.yul\":2795:2827   */\n      slt\n        /* \"#utility.yul\":2792:2911   */\n      iszero\n      tag_132\n      jumpi\n        /* \"#utility.yul\":2830:2909   */\n      tag_133\n      tag_75\n      jump\t// in\n    tag_133:\n        /* \"#utility.yul\":2792:2911   */\n    tag_132:\n        /* \"#utility.yul\":2950:2951   */\n      0x00\n        /* \"#utility.yul\":2975:3028   */\n      tag_134\n        /* \"#utility.yul\":3020:3027   */\n      dup5\n        /* \"#utility.yul\":3011:3017   */\n      dup3\n        /* \"#utility.yul\":3000:3009   */\n      dup6\n        /* \"#utility.yul\":2996:3018   */\n      add\n        /* \"#utility.yul\":2975:3028   */\n      tag_84\n      jump\t// in\n    tag_134:\n        /* \"#utility.yul\":2965:3028   */\n      swap2\n      pop\n        /* \"#utility.yul\":2921:3038   */\n      pop\n        /* \"#utility.yul\":2716:3045   */\n      swap3\n      swap2\n      pop\n      pop\n      jump\t// out\n        /* \"#utility.yul\":3051:3220   */\n    tag_86:\n        /* \"#utility.yul\":3135:3146   */\n      0x00\n        /* \"#utility.yul\":3169:3175   */\n      dup3\n        /* \"#utility.yul\":3164:3167   */\n      dup3\n        /* \"#utility.yul\":3157:3176   */\n      mstore\n        /* \"#utility.yul\":3209:3213   */\n      0x20\n        /* \"#utility.yul\":3204:3207   */\n      dup3\n        /* \"#utility.yul\":3200:3214   */\n      add\n        /* \"#utility.yul\":3185:3214   */\n      swap1\n      pop\n        /* \"#utility.yul\":3051:3220   */\n      swap3\n      swap2\n      pop\n      pop\n      jump\t// out\n        /* \"#utility.yul\":3226:3405   */\n    tag_87:\n        /* \"#utility.yul\":3366:3397   */\n      0x416d6f756e74206d7573742062652067726561746572207468616e2030000000\n        /* \"#utility.yul\":3362:3363   */\n      0x00\n        /* \"#utility.yul\":3354:3360   */\n      dup3\n        /* \"#utility.yul\":3350:3364   */\n      add\n        /* \"#utility.yul\":3343:3398   */\n      mstore\n        /* \"#utility.yul\":3226:3405   */\n      pop\n      jump\t// out\n        /* \"#utility.yul\":3411:3777   */\n    tag_88:\n        /* \"#utility.yul\":3553:3556   */\n      0x00\n        /* \"#utility.yul\":3574:3641   */\n      tag_138\n        /* \"#utility.yul\":3638:3640   */\n      0x1d\n        /* \"#utility.yul\":3633:3636   */\n      dup4\n        /* \"#utility.yul\":3574:3641   */\n      tag_86\n      jump\t// in\n    tag_138:\n        /* \"#utility.yul\":3567:3641   */\n      swap2\n      pop\n        /* \"#utility.yul\":3650:3743   */\n      tag_139\n        /* \"#utility.yul\":3739:3742   */\n      dup3\n        /* \"#utility.yul\":3650:3743   */\n      tag_87\n      jump\t// in\n    tag_139:\n        /* \"#utility.yul\":3768:3770   */\n      0x20\n        /* \"#utility.yul\":3763:3766   */\n      dup3\n        /* \"#utility.yul\":3759:3771   */\n      add\n        /* \"#utility.yul\":3752:3771   */\n      swap1\n      pop\n        /* \"#utility.yul\":3411:3777   */\n      swap2\n      swap1\n      pop\n      jump\t// out\n        /* \"#utility.yul\":3783:4202   */\n    tag_45:\n        /* \"#utility.yul\":3949:3953   */\n      0x00\n        /* \"#utility.yul\":3987:3989   */\n      0x20\n        /* \"#utility.yul\":3976:3985   */\n      dup3\n        /* \"#utility.yul\":3972:3990   */\n      add\n        /* \"#utility.yul\":3964:3990   */\n      swap1\n      pop\n        /* \"#utility.yul\":4036:4045   */\n      dup2\n        /* \"#utility.yul\":4030:4034   */\n      dup2\n        /* \"#utility.yul\":4026:4046   */\n      sub\n        /* \"#utility.yul\":4022:4023   */\n      0x00\n        /* \"#utility.yul\":4011:4020   */\n      dup4\n        /* \"#utility.yul\":4007:4024   */\n      add\n        /* \"#utility.yul\":4000:4047   */\n      mstore\n        /* \"#utility.yul\":4064:4195   */\n      tag_141\n        /* \"#utility.yul\":4190:4194   */\n      dup2\n        /* \"#utility.yul\":4064:4195   */\n      tag_88\n      jump\t// in\n    tag_141:\n        /* \"#utility.yul\":4056:4195   */\n      swap1\n      pop\n        /* \"#utility.yul\":3783:4202   */\n      swap2\n      swap1\n      pop\n      jump\t// out\n        /* \"#utility.yul\":4208:4388   */\n    tag_89:\n        /* \"#utility.yul\":4256:4333   */\n      0x4e487b7100000000000000000000000000000000000000000000000000000000\n        /* \"#utility.yul\":4253:4254   */\n      0x00\n        /* \"#utility.yul\":4246:4334   */\n      mstore\n        /* \"#utility.yul\":4353:4357   */\n      0x11\n        /* \"#utility.yul\":4350:4351   */\n      0x04\n        /* \"#utility.yul\":4343:4358   */\n      mstore\n        /* \"#utility.yul\":4377:4381   */\n      0x24\n        /* \"#utility.yul\":4374:4375   */\n      0x00\n        /* \"#utility.yul\":4367:4382   */\n      revert\n        /* \"#utility.yul\":4394:4585   */\n    tag_47:\n        /* \"#utility.yul\":4434:4437   */\n      0x00\n        /* \"#utility.yul\":4453:4473   */\n      tag_144\n        /* \"#utility.yul\":4471:4472   */\n      dup3\n        /* \"#utility.yul\":4453:4473   */\n      tag_81\n      jump\t// in\n    tag_144:\n        /* \"#utility.yul\":4448:4473   */\n      swap2\n      pop\n        /* \"#utility.yul\":4487:4507   */\n      tag_145\n        /* \"#utility.yul\":4505:4506   */\n      dup4\n        /* \"#utility.yul\":4487:4507   */\n      tag_81\n      jump\t// in\n    tag_145:\n        /* \"#utility.yul\":4482:4507   */\n      swap3\n      pop\n        /* \"#utility.yul\":4530:4531   */\n      dup3\n        /* \"#utility.yul\":4527:4528   */\n      dup3\n        /* \"#utility.yul\":4523:4532   */\n      add\n        /* \"#utility.yul\":4516:4532   */\n      swap1\n      pop\n        /* \"#utility.yul\":4551:4554   */\n      dup1\n        /* \"#utility.yul\":4548:4549   */\n      dup3\n        /* \"#utility.yul\":4545:4555   */\n      gt\n        /* \"#utility.yul\":4542:4578   */\n      iszero\n      tag_146\n      jumpi\n        /* \"#utility.yul\":4558:4576   */\n      tag_147\n      tag_89\n      jump\t// in\n    tag_147:\n        /* \"#utility.yul\":4542:4578   */\n    tag_146:\n        /* \"#utility.yul\":4394:4585   */\n      swap3\n      swap2\n      pop\n      pop\n      jump\t// out\n        /* \"#utility.yul\":4591:4761   */\n    tag_90:\n        /* \"#utility.yul\":4731:4753   */\n      0x496e73756666696369656e742062616c616e6365000000000000000000000000\n        /* \"#utility.yul\":4727:4728   */\n      0x00\n        /* \"#utility.yul\":4719:4725   */\n      dup3\n        /* \"#utility.yul\":4715:4729   */\n      add\n        /* \"#utility.yul\":4708:4754   */\n      mstore\n        /* \"#utility.yul\":4591:4761   */\n      pop\n      jump\t// out\n        /* \"#utility.yul\":4767:5133   */\n    tag_91:\n        /* \"#utility.yul\":4909:4912   */\n      0x00\n        /* \"#utility.yul\":4930:4997   */\n      tag_150\n        /* \"#utility.yul\":4994:4996   */\n      0x14\n        /* \"#utility.yul\":4989:4992   */\n      dup4\n        /* \"#utility.yul\":4930:4997   */\n      tag_86\n      jump\t// in\n    tag_150:\n        /* \"#utility.yul\":4923:4997   */\n      swap2\n      pop\n        /* \"#utility.yul\":5006:5099   */\n      tag_151\n        /* \"#utility.yul\":5095:5098   */\n      dup3\n        /* \"#utility.yul\":5006:5099   */\n      tag_90\n      jump\t// in\n    tag_151:\n        /* \"#utility.yul\":5124:5126   */\n      0x20\n        /* \"#utility.yul\":5119:5122   */\n      dup3\n        /* \"#utility.yul\":5115:5127   */\n      add\n        /* \"#utility.yul\":5108:5127   */\n      swap1\n      pop\n        /* \"#utility.yul\":4767:5133   */\n      swap2\n      swap1\n      pop\n      jump\t// out\n        /* \"#utility.yul\":5139:5558   */\n    tag_54:\n        /* \"#utility.yul\":5305:5309   */\n      0x00\n        /* \"#utility.yul\":5343:5345   */\n      0x20\n        /* \"#utility.yul\":5332:5341   */\n      dup3\n        /* \"#utility.yul\":5328:5346   */\n      add\n        /* \"#utility.yul\":5320:5346   */\n      swap1\n      pop\n        /* \"#utility.yul\":5392:5401   */\n      dup2\n        /* \"#utility.yul\":5386:5390   */\n      dup2\n        /* \"#utility.yul\":5382:5402   */\n      sub\n        /* \"#utility.yul\":5378:5379   */\n      0x00\n        /* \"#utility.yul\":5367:5376   */\n      dup4\n        /* \"#utility.yul\":5363:5380   */\n      add\n        /* \"#utility.yul\":5356:5403   */\n      mstore\n        /* \"#utility.yul\":5420:5551   */\n      tag_153\n        /* \"#utility.yul\":5546:5550   */\n      dup2\n        /* \"#utility.yul\":5420:5551   */\n      tag_91\n      jump\t// in\n    tag_153:\n        /* \"#utility.yul\":5412:5551   */\n      swap1\n      pop\n        /* \"#utility.yul\":5139:5558   */\n      swap2\n      swap1\n      pop\n      jump\t// out\n        /* \"#utility.yul\":5564:5758   */\n    tag_56:\n        /* \"#utility.yul\":5604:5608   */\n      0x00\n        /* \"#utility.yul\":5624:5644   */\n      tag_155\n        /* \"#utility.yul\":5642:5643   */\n      dup3\n        /* \"#utility.yul\":5624:5644   */\n      tag_81\n      jump\t// in\n    tag_155:\n        /* \"#utility.yul\":5619:5644   */\n      swap2\n      pop\n        /* \"#utility.yul\":5658:5678   */\n      tag_156\n        /* \"#utility.yul\":5676:5677   */\n      dup4\n        /* \"#utility.yul\":5658:5678   */\n      tag_81\n      jump\t// in\n    tag_156:\n        /* \"#utility.yul\":5653:5678   */\n      swap3\n      pop\n        /* \"#utility.yul\":5702:5703   */\n      dup3\n        /* \"#utility.yul\":5699:5700   */\n      dup3\n        /* \"#utility.yul\":5695:5704   */\n      sub\n        /* \"#utility.yul\":5687:5704   */\n      swap1\n      pop\n        /* \"#utility.yul\":5726:5727   */\n      dup2\n        /* \"#utility.yul\":5720:5724   */\n      dup2\n        /* \"#utility.yul\":5717:5728   */\n      gt\n        /* \"#utility.yul\":5714:5751   */\n      iszero\n      tag_157\n      jumpi\n        /* \"#utility.yul\":5731:5749   */\n      tag_158\n      tag_89\n      jump\t// in\n    tag_158:\n        /* \"#utility.yul\":5714:5751   */\n    tag_157:\n        /* \"#utility.yul\":5564:5758   */\n      swap3\n      swap2\n      pop\n      pop\n      jump\t// out\n        /* \"#utility.yul\":5764:5993   */\n    tag_92:\n        /* \"#utility.yul\":5904:5938   */\n      0x4f6e6c7920636f6e7472616374206f776e65722063616e2063616c6c20746869\n        /* \"#utility.yul\":5900:5901   */\n      0x00\n        /* \"#utility.yul\":5892:5898   */\n      dup3\n        /* \"#utility.yul\":5888:5902   */\n      add\n        /* \"#utility.yul\":5881:5939   */\n      mstore\n        /* \"#utility.yul\":5973:5985   */\n      0x732066756e6374696f6e00000000000000000000000000000000000000000000\n        /* \"#utility.yul\":5968:5970   */\n      0x20\n        /* \"#utility.yul\":5960:5966   */\n      dup3\n        /* \"#utility.yul\":5956:5971   */\n      add\n        /* \"#utility.yul\":5949:5986   */\n      mstore\n        /* \"#utility.yul\":5764:5993   */\n      pop\n      jump\t// out\n        /* \"#utility.yul\":5999:6365   */\n    tag_93:\n        /* \"#utility.yul\":6141:6144   */\n      0x00\n        /* \"#utility.yul\":6162:6229   */\n      tag_161\n        /* \"#utility.yul\":6226:6228   */\n      0x2a\n        /* \"#utility.yul\":6221:6224   */\n      dup4\n        /* \"#utility.yul\":6162:6229   */\n      tag_86\n      jump\t// in\n    tag_161:\n        /* \"#utility.yul\":6155:6229   */\n      swap2\n      pop\n        /* \"#utility.yul\":6238:6331   */\n      tag_162\n        /* \"#utility.yul\":6327:6330   */\n      dup3\n        /* \"#utility.yul\":6238:6331   */\n      tag_92\n      jump\t// in\n    tag_162:\n        /* \"#utility.yul\":6356:6358   */\n      0x40\n        /* \"#utility.yul\":6351:6354   */\n      dup3\n        /* \"#utility.yul\":6347:6359   */\n      add\n        /* \"#utility.yul\":6340:6359   */\n      swap1\n      pop\n        /* \"#utility.yul\":5999:6365   */\n      swap2\n      swap1\n      pop\n      jump\t// out\n        /* \"#utility.yul\":6371:6790   */\n    tag_61:\n        /* \"#utility.yul\":6537:6541   */\n      0x00\n        /* \"#utility.yul\":6575:6577   */\n      0x20\n        /* \"#utility.yul\":6564:6573   */\n      dup3\n        /* \"#utility.yul\":6560:6578   */\n      add\n        /* \"#utility.yul\":6552:6578   */\n      swap1\n      pop\n        /* \"#utility.yul\":6624:6633   */\n      dup2\n        /* \"#utility.yul\":6618:6622   */\n      dup2\n        /* \"#utility.yul\":6614:6634   */\n      sub\n        /* \"#utility.yul\":6610:6611   */\n      0x00\n        /* \"#utility.yul\":6599:6608   */\n      dup4\n        /* \"#utility.yul\":6595:6612   */\n      add\n        /* \"#utility.yul\":6588:6635   */\n      mstore\n        /* \"#utility.yul\":6652:6783   */\n      tag_164\n        /* \"#utility.yul\":6778:6782   */\n      dup2\n        /* \"#utility.yul\":6652:6783   */\n      tag_93\n      jump\t// in\n    tag_164:\n        /* \"#utility.yul\":6644:6783   */\n      swap1\n      pop\n        /* \"#utility.yul\":6371:6790   */\n      swap2\n      swap1\n      pop\n      jump\t// out\n        /* \"#utility.yul\":6796:7025   */\n    tag_94:\n        /* \"#utility.yul\":6936:6970   */\n      0x5472616e73616374696f6e20616d6f756e742065786365656473206d6178696d\n        /* \"#utility.yul\":6932:6933   */\n      0x00\n        /* \"#utility.yul\":6924:6930   */\n      dup3\n        /* \"#utility.yul\":6920:6934   */\n      add\n        /* \"#utility.yul\":6913:6971   */\n      mstore\n        /* \"#utility.yul\":7005:7017   */\n      0x756d20616c6c6f77656400000000000000000000000000000000000000000000\n        /* \"#utility.yul\":7000:7002   */\n      0x20\n        /* \"#utility.yul\":6992:6998   */\n      dup3\n        /* \"#utility.yul\":6988:7003   */\n      add\n        /* \"#utility.yul\":6981:7018   */\n      mstore\n        /* \"#utility.yul\":6796:7025   */\n      pop\n      jump\t// out\n        /* \"#utility.yul\":7031:7397   */\n    tag_95:\n        /* \"#utility.yul\":7173:7176   */\n      0x00\n        /* \"#utility.yul\":7194:7261   */\n      tag_167\n        /* \"#utility.yul\":7258:7260   */\n      0x2a\n        /* \"#utility.yul\":7253:7256   */\n      dup4\n        /* \"#utility.yul\":7194:7261   */\n      tag_86\n      jump\t// in\n    tag_167:\n        /* \"#utility.yul\":7187:7261   */\n      swap2\n      pop\n        /* \"#utility.yul\":7270:7363   */\n      tag_168\n        /* \"#utility.yul\":7359:7362   */\n      dup3\n        /* \"#utility.yul\":7270:7363   */\n      tag_94\n      jump\t// in\n    tag_168:\n        /* \"#utility.yul\":7388:7390   */\n      0x40\n        /* \"#utility.yul\":7383:7386   */\n      dup3\n        /* \"#utility.yul\":7379:7391   */\n      add\n        /* \"#utility.yul\":7372:7391   */\n      swap1\n      pop\n        /* \"#utility.yul\":7031:7397   */\n      swap2\n      swap1\n      pop\n      jump\t// out\n        /* \"#utility.yul\":7403:7822   */\n    tag_68:\n        /* \"#utility.yul\":7569:7573   */\n      0x00\n        /* \"#utility.yul\":7607:7609   */\n      0x20\n        /* \"#utility.yul\":7596:7605   */\n      dup3\n        /* \"#utility.yul\":7592:7610   */\n      add\n        /* \"#utility.yul\":7584:7610   */\n      swap1\n      pop\n        /* \"#utility.yul\":7656:7665   */\n      dup2\n        /* \"#utility.yul\":7650:7654   */\n      dup2\n        /* \"#utility.yul\":7646:7666   */\n      sub\n        /* \"#utility.yul\":7642:7643   */\n      0x00\n        /* \"#utility.yul\":7631:7640   */\n      dup4\n        /* \"#utility.yul\":7627:7644   */\n      add\n        /* \"#utility.yul\":7620:7667   */\n      mstore\n        /* \"#utility.yul\":7684:7815   */\n      tag_170\n        /* \"#utility.yul\":7810:7814   */\n      dup2\n        /* \"#utility.yul\":7684:7815   */\n      tag_95\n      jump\t// in\n    tag_170:\n        /* \"#utility.yul\":7676:7815   */\n      swap1\n      pop\n        /* \"#utility.yul\":7403:7822   */\n      swap2\n      swap1\n      pop\n      jump\t// out\n        /* \"#utility.yul\":7828:8008   */\n    tag_73:\n        /* \"#utility.yul\":7876:7953   */\n      0x4e487b7100000000000000000000000000000000000000000000000000000000\n        /* \"#utility.yul\":7873:7874   */\n      0x00\n        /* \"#utility.yul\":7866:7954   */\n      mstore\n        /* \"#utility.yul\":7973:7977   */\n      0x01\n        /* \"#utility.yul\":7970:7971   */\n      0x04\n        /* \"#utility.yul\":7963:7978   */\n      mstore\n        /* \"#utility.yul\":7997:8001   */\n      0x24\n        /* \"#utility.yul\":7994:7995   */\n      0x00\n        /* \"#utility.yul\":7987:8002   */\n      revert\n\n    auxdata: 0xa2646970667358221220d9ba3dc5d339a8905ee6a55acb259d3008b40e5b86b8cfe744d067852b1200ba64736f6c634300081a0033\n}\n",
				"bytecode": {
					"linkReferences": {},
					"object": "60806040525f80556103206001553480156017575f80fd5b503360025f6101000a81548173ffffffffffffffffffffffffffffffffffffffff021916908373ffffffffffffffffffffffffffffffffffffffff160217905550610a2a806100655f395ff3fe608060405234801561000f575f80fd5b5060043610610086575f3560e01c8063a9059cbb11610059578063a9059cbb14610112578063cd73ab021461012e578063d98fc8971461014a578063f3fef3a31461016857610086565b8063239fcf0f1461008a578063306d6e87146100ba57806347e7ef24146100d85780638da5cb5b146100f4575b5f80fd5b6100a4600480360381019061009f9190610621565b610184565b6040516100b19190610664565b60405180910390f35b6100c2610199565b6040516100cf9190610664565b60405180910390f35b6100f260048036038101906100ed91906106a7565b61019e565b005b6100fc61024e565b60405161010991906106f4565b60405180910390f35b61012c600480360381019061012791906106a7565b610273565b005b6101486004803603810190610143919061070d565b6103df565b005b610152610478565b60405161015f9190610664565b60405180910390f35b610182600480360381019061017d91906106a7565b61047e565b005b6003602052805f5260405f205f915090505481565b5f5481565b5f81116101e0576040517f08c379a00000000000000000000000000000000000000000000000000000000081526004016101d790610792565b60405180910390fd5b805f808282546101f091906107dd565b925050819055508060035f8473ffffffffffffffffffffffffffffffffffffffff1673ffffffffffffffffffffffffffffffffffffffff1681526020019081526020015f205f82825461024391906107dd565b925050819055505050565b60025f9054906101000a900473ffffffffffffffffffffffffffffffffffffffff1681565b5f81116102b5576040517f08c379a00000000000000000000000000000000000000000000000000000000081526004016102ac90610792565b60405180910390fd5b8060035f3373ffffffffffffffffffffffffffffffffffffffff1673ffffffffffffffffffffffffffffffffffffffff1681526020019081526020015f20541015610335576040517f08c379a000000000000000000000000000000000000000000000000000000000815260040161032c9061085a565b60405180910390fd5b8060035f3373ffffffffffffffffffffffffffffffffffffffff1673ffffffffffffffffffffffffffffffffffffffff1681526020019081526020015f205f8282546103819190610878565b925050819055508060035f8473ffffffffffffffffffffffffffffffffffffffff1673ffffffffffffffffffffffffffffffffffffffff1681526020019081526020015f205f8282546103d491906107dd565b925050819055505050565b60025f9054906101000a900473ffffffffffffffffffffffffffffffffffffffff1673ffffffffffffffffffffffffffffffffffffffff163373ffffffffffffffffffffffffffffffffffffffff161461046e576040517f08c379a00000000000000000000000000000000000000000000000000000000081526004016104659061091b565b60405180910390fd5b8060018190555050565b60015481565b8060035f8473ffffffffffffffffffffffffffffffffffffffff1673ffffffffffffffffffffffffffffffffffffffff1681526020019081526020015f205410156104fe576040517f08c379a00000000000000000000000000000000000000000000000000000000081526004016104f59061085a565b60405180910390fd5b600154811115610543576040517f08c379a000000000000000000000000000000000000000000000000000000000815260040161053a906109a9565b60405180910390fd5b805f808282546105539190610878565b925050819055508060035f8473ffffffffffffffffffffffffffffffffffffffff1673ffffffffffffffffffffffffffffffffffffffff1681526020019081526020015f205f8282546105a69190610878565b925050819055505f805410156105bf576105be6109c7565b5b5050565b5f80fd5b5f73ffffffffffffffffffffffffffffffffffffffff82169050919050565b5f6105f0826105c7565b9050919050565b610600816105e6565b811461060a575f80fd5b50565b5f8135905061061b816105f7565b92915050565b5f60208284031215610636576106356105c3565b5b5f6106438482850161060d565b91505092915050565b5f819050919050565b61065e8161064c565b82525050565b5f6020820190506106775f830184610655565b92915050565b6106868161064c565b8114610690575f80fd5b50565b5f813590506106a18161067d565b92915050565b5f80604083850312156106bd576106bc6105c3565b5b5f6106ca8582860161060d565b92505060206106db85828601610693565b9150509250929050565b6106ee816105e6565b82525050565b5f6020820190506107075f8301846106e5565b92915050565b5f60208284031215610722576107216105c3565b5b5f61072f84828501610693565b91505092915050565b5f82825260208201905092915050565b7f416d6f756e74206d7573742062652067726561746572207468616e20300000005f82015250565b5f61077c601d83610738565b915061078782610748565b602082019050919050565b5f6020820190508181035f8301526107a981610770565b9050919050565b7f4e487b71000000000000000000000000000000000000000000000000000000005f52601160045260245ffd5b5f6107e78261064c565b91506107f28361064c565b925082820190508082111561080a576108096107b0565b5b92915050565b7f496e73756666696369656e742062616c616e63650000000000000000000000005f82015250565b5f610844601483610738565b915061084f82610810565b602082019050919050565b5f6020820190508181035f83015261087181610838565b9050919050565b5f6108828261064c565b915061088d8361064c565b92508282039050818111156108a5576108a46107b0565b5b92915050565b7f4f6e6c7920636f6e7472616374206f776e65722063616e2063616c6c207468695f8201527f732066756e6374696f6e00000000000000000000000000000000000000000000602082015250565b5f610905602a83610738565b9150610910826108ab565b604082019050919050565b5f6020820190508181035f830152610932816108f9565b9050919050565b7f5472616e73616374696f6e20616d6f756e742065786365656473206d6178696d5f8201527f756d20616c6c6f77656400000000000000000000000000000000000000000000602082015250565b5f610993602a83610738565b915061099e82610939565b604082019050919050565b5f6020820190508181035f8301526109c081610987565b9050919050565b7f4e487b71000000000000000000000000000000000000000000000000000000005f52600160045260245ffdfea2646970667358221220d9ba3dc5d339a8905ee6a55acb259d3008b40e5b86b8cfe744d067852b1200ba64736f6c634300081a0033",
					"opcodes": "PUSH1 0x80 PUSH1 0x40 MSTORE PUSH0 DUP1 SSTORE PUSH2 0x320 PUSH1 0x1 SSTORE CALLVALUE DUP1 ISZERO PUSH1 0x17 JUMPI PUSH0 DUP1 REVERT JUMPDEST POP CALLER PUSH1 0x2 PUSH0 PUSH2 0x100 EXP DUP2 SLOAD DUP2 PUSH20 0xFFFFFFFFFFFFFFFFFFFFFFFFFFFFFFFFFFFFFFFF MUL NOT AND SWAP1 DUP4 PUSH20 0xFFFFFFFFFFFFFFFFFFFFFFFFFFFFFFFFFFFFFFFF AND MUL OR SWAP1 SSTORE POP PUSH2 0xA2A DUP1 PUSH2 0x65 PUSH0 CODECOPY PUSH0 RETURN INVALID PUSH1 0x80 PUSH1 0x40 MSTORE CALLVALUE DUP1 ISZERO PUSH2 0xF JUMPI PUSH0 DUP1 REVERT JUMPDEST POP PUSH1 0x4 CALLDATASIZE LT PUSH2 0x86 JUMPI PUSH0 CALLDATALOAD PUSH1 0xE0 SHR DUP1 PUSH4 0xA9059CBB GT PUSH2 0x59 JUMPI DUP1 PUSH4 0xA9059CBB EQ PUSH2 0x112 JUMPI DUP1 PUSH4 0xCD73AB02 EQ PUSH2 0x12E JUMPI DUP1 PUSH4 0xD98FC897 EQ PUSH2 0x14A JUMPI DUP1 PUSH4 0xF3FEF3A3 EQ PUSH2 0x168 JUMPI PUSH2 0x86 JUMP JUMPDEST DUP1 PUSH4 0x239FCF0F EQ PUSH2 0x8A JUMPI DUP1 PUSH4 0x306D6E87 EQ PUSH2 0xBA JUMPI DUP1 PUSH4 0x47E7EF24 EQ PUSH2 0xD8 JUMPI DUP1 PUSH4 0x8DA5CB5B EQ PUSH2 0xF4 JUMPI JUMPDEST PUSH0 DUP1 REVERT JUMPDEST PUSH2 0xA4 PUSH1 0x4 DUP1 CALLDATASIZE SUB DUP2 ADD SWAP1 PUSH2 0x9F SWAP2 SWAP1 PUSH2 0x621 JUMP JUMPDEST PUSH2 0x184 JUMP JUMPDEST PUSH1 0x40 MLOAD PUSH2 0xB1 SWAP2 SWAP1 PUSH2 0x664 JUMP JUMPDEST PUSH1 0x40 MLOAD DUP1 SWAP2 SUB SWAP1 RETURN JUMPDEST PUSH2 0xC2 PUSH2 0x199 JUMP JUMPDEST PUSH1 0x40 MLOAD PUSH2 0xCF SWAP2 SWAP1 PUSH2 0x664 JUMP JUMPDEST PUSH1 0x40 MLOAD DUP1 SWAP2 SUB SWAP1 RETURN JUMPDEST PUSH2 0xF2 PUSH1 0x4 DUP1 CALLDATASIZE SUB DUP2 ADD SWAP1 PUSH2 0xED SWAP2 SWAP1 PUSH2 0x6A7 JUMP JUMPDEST PUSH2 0x19E JUMP JUMPDEST STOP JUMPDEST PUSH2 0xFC PUSH2 0x24E JUMP JUMPDEST PUSH1 0x40 MLOAD PUSH2 0x109 SWAP2 SWAP1 PUSH2 0x6F4 JUMP JUMPDEST PUSH1 0x40 MLOAD DUP1 SWAP2 SUB SWAP1 RETURN JUMPDEST PUSH2 0x12C PUSH1 0x4 DUP1 CALLDATASIZE SUB DUP2 ADD SWAP1 PUSH2 0x127 SWAP2 SWAP1 PUSH2 0x6A7 JUMP JUMPDEST PUSH2 0x273 JUMP JUMPDEST STOP JUMPDEST PUSH2 0x148 PUSH1 0x4 DUP1 CALLDATASIZE SUB DUP2 ADD SWAP1 PUSH2 0x143 SWAP2 SWAP1 PUSH2 0x70D JUMP JUMPDEST PUSH2 0x3DF JUMP JUMPDEST STOP JUMPDEST PUSH2 0x152 PUSH2 0x478 JUMP JUMPDEST PUSH1 0x40 MLOAD PUSH2 0x15F SWAP2 SWAP1 PUSH2 0x664 JUMP JUMPDEST PUSH1 0x40 MLOAD DUP1 SWAP2 SUB SWAP1 RETURN JUMPDEST PUSH2 0x182 PUSH1 0x4 DUP1 CALLDATASIZE SUB DUP2 ADD SWAP1 PUSH2 0x17D SWAP2 SWAP1 PUSH2 0x6A7 JUMP JUMPDEST PUSH2 0x47E JUMP JUMPDEST STOP JUMPDEST PUSH1 0x3 PUSH1 0x20 MSTORE DUP1 PUSH0 MSTORE PUSH1 0x40 PUSH0 KECCAK256 PUSH0 SWAP2 POP SWAP1 POP SLOAD DUP2 JUMP JUMPDEST PUSH0 SLOAD DUP2 JUMP JUMPDEST PUSH0 DUP2 GT PUSH2 0x1E0 JUMPI PUSH1 0x40 MLOAD PUSH32 0x8C379A000000000000000000000000000000000000000000000000000000000 DUP2 MSTORE PUSH1 0x4 ADD PUSH2 0x1D7 SWAP1 PUSH2 0x792 JUMP JUMPDEST PUSH1 0x40 MLOAD DUP1 SWAP2 SUB SWAP1 REVERT JUMPDEST DUP1 PUSH0 DUP1 DUP3 DUP3 SLOAD PUSH2 0x1F0 SWAP2 SWAP1 PUSH2 0x7DD JUMP JUMPDEST SWAP3 POP POP DUP2 SWAP1 SSTORE POP DUP1 PUSH1 0x3 PUSH0 DUP5 PUSH20 0xFFFFFFFFFFFFFFFFFFFFFFFFFFFFFFFFFFFFFFFF AND PUSH20 0xFFFFFFFFFFFFFFFFFFFFFFFFFFFFFFFFFFFFFFFF AND DUP2 MSTORE PUSH1 0x20 ADD SWAP1 DUP2 MSTORE PUSH1 0x20 ADD PUSH0 KECCAK256 PUSH0 DUP3 DUP3 SLOAD PUSH2 0x243 SWAP2 SWAP1 PUSH2 0x7DD JUMP JUMPDEST SWAP3 POP POP DUP2 SWAP1 SSTORE POP POP POP JUMP JUMPDEST PUSH1 0x2 PUSH0 SWAP1 SLOAD SWAP1 PUSH2 0x100 EXP SWAP1 DIV PUSH20 0xFFFFFFFFFFFFFFFFFFFFFFFFFFFFFFFFFFFFFFFF AND DUP2 JUMP JUMPDEST PUSH0 DUP2 GT PUSH2 0x2B5 JUMPI PUSH1 0x40 MLOAD PUSH32 0x8C379A000000000000000000000000000000000000000000000000000000000 DUP2 MSTORE PUSH1 0x4 ADD PUSH2 0x2AC SWAP1 PUSH2 0x792 JUMP JUMPDEST PUSH1 0x40 MLOAD DUP1 SWAP2 SUB SWAP1 REVERT JUMPDEST DUP1 PUSH1 0x3 PUSH0 CALLER PUSH20 0xFFFFFFFFFFFFFFFFFFFFFFFFFFFFFFFFFFFFFFFF AND PUSH20 0xFFFFFFFFFFFFFFFFFFFFFFFFFFFFFFFFFFFFFFFF AND DUP2 MSTORE PUSH1 0x20 ADD SWAP1 DUP2 MSTORE PUSH1 0x20 ADD PUSH0 KECCAK256 SLOAD LT ISZERO PUSH2 0x335 JUMPI PUSH1 0x40 MLOAD PUSH32 0x8C379A000000000000000000000000000000000000000000000000000000000 DUP2 MSTORE PUSH1 0x4 ADD PUSH2 0x32C SWAP1 PUSH2 0x85A JUMP JUMPDEST PUSH1 0x40 MLOAD DUP1 SWAP2 SUB SWAP1 REVERT JUMPDEST DUP1 PUSH1 0x3 PUSH0 CALLER PUSH20 0xFFFFFFFFFFFFFFFFFFFFFFFFFFFFFFFFFFFFFFFF AND PUSH20 0xFFFFFFFFFFFFFFFFFFFFFFFFFFFFFFFFFFFFFFFF AND DUP2 MSTORE PUSH1 0x20 ADD SWAP1 DUP2 MSTORE PUSH1 0x20 ADD PUSH0 KECCAK256 PUSH0 DUP3 DUP3 SLOAD PUSH2 0x381 SWAP2 SWAP1 PUSH2 0x878 JUMP JUMPDEST SWAP3 POP POP DUP2 SWAP1 SSTORE POP DUP1 PUSH1 0x3 PUSH0 DUP5 PUSH20 0xFFFFFFFFFFFFFFFFFFFFFFFFFFFFFFFFFFFFFFFF AND PUSH20 0xFFFFFFFFFFFFFFFFFFFFFFFFFFFFFFFFFFFFFFFF AND DUP2 MSTORE PUSH1 0x20 ADD SWAP1 DUP2 MSTORE PUSH1 0x20 ADD PUSH0 KECCAK256 PUSH0 DUP3 DUP3 SLOAD PUSH2 0x3D4 SWAP2 SWAP1 PUSH2 0x7DD JUMP JUMPDEST SWAP3 POP POP DUP2 SWAP1 SSTORE POP POP POP JUMP JUMPDEST PUSH1 0x2 PUSH0 SWAP1 SLOAD SWAP1 PUSH2 0x100 EXP SWAP1 DIV PUSH20 0xFFFFFFFFFFFFFFFFFFFFFFFFFFFFFFFFFFFFFFFF AND PUSH20 0xFFFFFFFFFFFFFFFFFFFFFFFFFFFFFFFFFFFFFFFF AND CALLER PUSH20 0xFFFFFFFFFFFFFFFFFFFFFFFFFFFFFFFFFFFFFFFF AND EQ PUSH2 0x46E JUMPI PUSH1 0x40 MLOAD PUSH32 0x8C379A000000000000000000000000000000000000000000000000000000000 DUP2 MSTORE PUSH1 0x4 ADD PUSH2 0x465 SWAP1 PUSH2 0x91B JUMP JUMPDEST PUSH1 0x40 MLOAD DUP1 SWAP2 SUB SWAP1 REVERT JUMPDEST DUP1 PUSH1 0x1 DUP2 SWAP1 SSTORE POP POP JUMP JUMPDEST PUSH1 0x1 SLOAD DUP2 JUMP JUMPDEST DUP1 PUSH1 0x3 PUSH0 DUP5 PUSH20 0xFFFFFFFFFFFFFFFFFFFFFFFFFFFFFFFFFFFFFFFF AND PUSH20 0xFFFFFFFFFFFFFFFFFFFFFFFFFFFFFFFFFFFFFFFF AND DUP2 MSTORE PUSH1 0x20 ADD SWAP1 DUP2 MSTORE PUSH1 0x20 ADD PUSH0 KECCAK256 SLOAD LT ISZERO PUSH2 0x4FE JUMPI PUSH1 0x40 MLOAD PUSH32 0x8C379A000000000000000000000000000000000000000000000000000000000 DUP2 MSTORE PUSH1 0x4 ADD PUSH2 0x4F5 SWAP1 PUSH2 0x85A JUMP JUMPDEST PUSH1 0x40 MLOAD DUP1 SWAP2 SUB SWAP1 REVERT JUMPDEST PUSH1 0x1 SLOAD DUP2 GT ISZERO PUSH2 0x543 JUMPI PUSH1 0x40 MLOAD PUSH32 0x8C379A000000000000000000000000000000000000000000000000000000000 DUP2 MSTORE PUSH1 0x4 ADD PUSH2 0x53A SWAP1 PUSH2 0x9A9 JUMP JUMPDEST PUSH1 0x40 MLOAD DUP1 SWAP2 SUB SWAP1 REVERT JUMPDEST DUP1 PUSH0 DUP1 DUP3 DUP3 SLOAD PUSH2 0x553 SWAP2 SWAP1 PUSH2 0x878 JUMP JUMPDEST SWAP3 POP POP DUP2 SWAP1 SSTORE POP DUP1 PUSH1 0x3 PUSH0 DUP5 PUSH20 0xFFFFFFFFFFFFFFFFFFFFFFFFFFFFFFFFFFFFFFFF AND PUSH20 0xFFFFFFFFFFFFFFFFFFFFFFFFFFFFFFFFFFFFFFFF AND DUP2 MSTORE PUSH1 0x20 ADD SWAP1 DUP2 MSTORE PUSH1 0x20 ADD PUSH0 KECCAK256 PUSH0 DUP3 DUP3 SLOAD PUSH2 0x5A6 SWAP2 SWAP1 PUSH2 0x878 JUMP JUMPDEST SWAP3 POP POP DUP2 SWAP1 SSTORE POP PUSH0 DUP1 SLOAD LT ISZERO PUSH2 0x5BF JUMPI PUSH2 0x5BE PUSH2 0x9C7 JUMP JUMPDEST JUMPDEST POP POP JUMP JUMPDEST PUSH0 DUP1 REVERT JUMPDEST PUSH0 PUSH20 0xFFFFFFFFFFFFFFFFFFFFFFFFFFFFFFFFFFFFFFFF DUP3 AND SWAP1 POP SWAP2 SWAP1 POP JUMP JUMPDEST PUSH0 PUSH2 0x5F0 DUP3 PUSH2 0x5C7 JUMP JUMPDEST SWAP1 POP SWAP2 SWAP1 POP JUMP JUMPDEST PUSH2 0x600 DUP2 PUSH2 0x5E6 JUMP JUMPDEST DUP2 EQ PUSH2 0x60A JUMPI PUSH0 DUP1 REVERT JUMPDEST POP JUMP JUMPDEST PUSH0 DUP2 CALLDATALOAD SWAP1 POP PUSH2 0x61B DUP2 PUSH2 0x5F7 JUMP JUMPDEST SWAP3 SWAP2 POP POP JUMP JUMPDEST PUSH0 PUSH1 0x20 DUP3 DUP5 SUB SLT ISZERO PUSH2 0x636 JUMPI PUSH2 0x635 PUSH2 0x5C3 JUMP JUMPDEST JUMPDEST PUSH0 PUSH2 0x643 DUP5 DUP3 DUP6 ADD PUSH2 0x60D JUMP JUMPDEST SWAP2 POP POP SWAP3 SWAP2 POP POP JUMP JUMPDEST PUSH0 DUP2 SWAP1 POP SWAP2 SWAP1 POP JUMP JUMPDEST PUSH2 0x65E DUP2 PUSH2 0x64C JUMP JUMPDEST DUP3 MSTORE POP POP JUMP JUMPDEST PUSH0 PUSH1 0x20 DUP3 ADD SWAP1 POP PUSH2 0x677 PUSH0 DUP4 ADD DUP5 PUSH2 0x655 JUMP JUMPDEST SWAP3 SWAP2 POP POP JUMP JUMPDEST PUSH2 0x686 DUP2 PUSH2 0x64C JUMP JUMPDEST DUP2 EQ PUSH2 0x690 JUMPI PUSH0 DUP1 REVERT JUMPDEST POP JUMP JUMPDEST PUSH0 DUP2 CALLDATALOAD SWAP1 POP PUSH2 0x6A1 DUP2 PUSH2 0x67D JUMP JUMPDEST SWAP3 SWAP2 POP POP JUMP JUMPDEST PUSH0 DUP1 PUSH1 0x40 DUP4 DUP6 SUB SLT ISZERO PUSH2 0x6BD JUMPI PUSH2 0x6BC PUSH2 0x5C3 JUMP JUMPDEST JUMPDEST PUSH0 PUSH2 0x6CA DUP6 DUP3 DUP7 ADD PUSH2 0x60D JUMP JUMPDEST SWAP3 POP POP PUSH1 0x20 PUSH2 0x6DB DUP6 DUP3 DUP7 ADD PUSH2 0x693 JUMP JUMPDEST SWAP2 POP POP SWAP3 POP SWAP3 SWAP1 POP JUMP JUMPDEST PUSH2 0x6EE DUP2 PUSH2 0x5E6 JUMP JUMPDEST DUP3 MSTORE POP POP JUMP JUMPDEST PUSH0 PUSH1 0x20 DUP3 ADD SWAP1 POP PUSH2 0x707 PUSH0 DUP4 ADD DUP5 PUSH2 0x6E5 JUMP JUMPDEST SWAP3 SWAP2 POP POP JUMP JUMPDEST PUSH0 PUSH1 0x20 DUP3 DUP5 SUB SLT ISZERO PUSH2 0x722 JUMPI PUSH2 0x721 PUSH2 0x5C3 JUMP JUMPDEST JUMPDEST PUSH0 PUSH2 0x72F DUP5 DUP3 DUP6 ADD PUSH2 0x693 JUMP JUMPDEST SWAP2 POP POP SWAP3 SWAP2 POP POP JUMP JUMPDEST PUSH0 DUP3 DUP3 MSTORE PUSH1 0x20 DUP3 ADD SWAP1 POP SWAP3 SWAP2 POP POP JUMP JUMPDEST PUSH32 0x416D6F756E74206D7573742062652067726561746572207468616E2030000000 PUSH0 DUP3 ADD MSTORE POP JUMP JUMPDEST PUSH0 PUSH2 0x77C PUSH1 0x1D DUP4 PUSH2 0x738 JUMP JUMPDEST SWAP2 POP PUSH2 0x787 DUP3 PUSH2 0x748 JUMP JUMPDEST PUSH1 0x20 DUP3 ADD SWAP1 POP SWAP2 SWAP1 POP JUMP JUMPDEST PUSH0 PUSH1 0x20 DUP3 ADD SWAP1 POP DUP2 DUP2 SUB PUSH0 DUP4 ADD MSTORE PUSH2 0x7A9 DUP2 PUSH2 0x770 JUMP JUMPDEST SWAP1 POP SWAP2 SWAP1 POP JUMP JUMPDEST PUSH32 0x4E487B7100000000000000000000000000000000000000000000000000000000 PUSH0 MSTORE PUSH1 0x11 PUSH1 0x4 MSTORE PUSH1 0x24 PUSH0 REVERT JUMPDEST PUSH0 PUSH2 0x7E7 DUP3 PUSH2 0x64C JUMP JUMPDEST SWAP2 POP PUSH2 0x7F2 DUP4 PUSH2 0x64C JUMP JUMPDEST SWAP3 POP DUP3 DUP3 ADD SWAP1 POP DUP1 DUP3 GT ISZERO PUSH2 0x80A JUMPI PUSH2 0x809 PUSH2 0x7B0 JUMP JUMPDEST JUMPDEST SWAP3 SWAP2 POP POP JUMP JUMPDEST PUSH32 0x496E73756666696369656E742062616C616E6365000000000000000000000000 PUSH0 DUP3 ADD MSTORE POP JUMP JUMPDEST PUSH0 PUSH2 0x844 PUSH1 0x14 DUP4 PUSH2 0x738 JUMP JUMPDEST SWAP2 POP PUSH2 0x84F DUP3 PUSH2 0x810 JUMP JUMPDEST PUSH1 0x20 DUP3 ADD SWAP1 POP SWAP2 SWAP1 POP JUMP JUMPDEST PUSH0 PUSH1 0x20 DUP3 ADD SWAP1 POP DUP2 DUP2 SUB PUSH0 DUP4 ADD MSTORE PUSH2 0x871 DUP2 PUSH2 0x838 JUMP JUMPDEST SWAP1 POP SWAP2 SWAP1 POP JUMP JUMPDEST PUSH0 PUSH2 0x882 DUP3 PUSH2 0x64C JUMP JUMPDEST SWAP2 POP PUSH2 0x88D DUP4 PUSH2 0x64C JUMP JUMPDEST SWAP3 POP DUP3 DUP3 SUB SWAP1 POP DUP2 DUP2 GT ISZERO PUSH2 0x8A5 JUMPI PUSH2 0x8A4 PUSH2 0x7B0 JUMP JUMPDEST JUMPDEST SWAP3 SWAP2 POP POP JUMP JUMPDEST PUSH32 0x4F6E6C7920636F6E7472616374206F776E65722063616E2063616C6C20746869 PUSH0 DUP3 ADD MSTORE PUSH32 0x732066756E6374696F6E00000000000000000000000000000000000000000000 PUSH1 0x20 DUP3 ADD MSTORE POP JUMP JUMPDEST PUSH0 PUSH2 0x905 PUSH1 0x2A DUP4 PUSH2 0x738 JUMP JUMPDEST SWAP2 POP PUSH2 0x910 DUP3 PUSH2 0x8AB JUMP JUMPDEST PUSH1 0x40 DUP3 ADD SWAP1 POP SWAP2 SWAP1 POP JUMP JUMPDEST PUSH0 PUSH1 0x20 DUP3 ADD SWAP1 POP DUP2 DUP2 SUB PUSH0 DUP4 ADD MSTORE PUSH2 0x932 DUP2 PUSH2 0x8F9 JUMP JUMPDEST SWAP1 POP SWAP2 SWAP1 POP JUMP JUMPDEST PUSH32 0x5472616E73616374696F6E20616D6F756E742065786365656473206D6178696D PUSH0 DUP3 ADD MSTORE PUSH32 0x756D20616C6C6F77656400000000000000000000000000000000000000000000 PUSH1 0x20 DUP3 ADD MSTORE POP JUMP JUMPDEST PUSH0 PUSH2 0x993 PUSH1 0x2A DUP4 PUSH2 0x738 JUMP JUMPDEST SWAP2 POP PUSH2 0x99E DUP3 PUSH2 0x939 JUMP JUMPDEST PUSH1 0x40 DUP3 ADD SWAP1 POP SWAP2 SWAP1 POP JUMP JUMPDEST PUSH0 PUSH1 0x20 DUP3 ADD SWAP1 POP DUP2 DUP2 SUB PUSH0 DUP4 ADD MSTORE PUSH2 0x9C0 DUP2 PUSH2 0x987 JUMP JUMPDEST SWAP1 POP SWAP2 SWAP1 POP JUMP JUMPDEST PUSH32 0x4E487B7100000000000000000000000000000000000000000000000000000000 PUSH0 MSTORE PUSH1 0x1 PUSH1 0x4 MSTORE PUSH1 0x24 PUSH0 REVERT INVALID LOG2 PUSH5 0x6970667358 0x22 SLT KECCAK256 0xD9 0xBA RETURNDATASIZE 0xC5 0xD3 CODECOPY 0xA8 SWAP1 MCOPY 0xE6 0xA5 GAS 0xCB 0x25 SWAP14 ADDRESS ADDMOD 0xB4 0xE JUMPDEST DUP7 0xB8 0xCF 0xE7 PREVRANDAO 0xD0 PUSH8 0x852B1200BA64736F PUSH13 0x634300081A0033000000000000 "
				},
				"gasEstimates": {
					"creation": {
						"codeDepositCost": "520400",
						"executionCost": "51930",
						"totalCost": "572330"
					},
					"external": {
						"Balance(address)": "2803",
						"Max_transaction()": "2469",
						"Total_Supply()": "2447",
						"changeMaxTransaction(uint256)": "24706",
						"deposit(address,uint256)": "infinite",
						"owner()": "2575",
						"transfer(address,uint256)": "infinite",
						"withdraw(address,uint256)": "infinite"
					}
				},
				"methodIdentifiers": {
					"Balance(address)": "239fcf0f",
					"Max_transaction()": "d98fc897",
					"Total_Supply()": "306d6e87",
					"changeMaxTransaction(uint256)": "cd73ab02",
					"deposit(address,uint256)": "47e7ef24",
					"owner()": "8da5cb5b",
					"transfer(address,uint256)": "a9059cbb",
					"withdraw(address,uint256)": "f3fef3a3"
				}
			},
			"storageLayout": {
				"storage": [
					{
						"astId": 4,
						"contract": "project.sol:MyToken",
						"label": "Total_Supply",
						"offset": 0,
						"slot": "0",
						"type": "t_uint256"
					},
					{
						"astId": 7,
						"contract": "project.sol:MyToken",
						"label": "Max_transaction",
						"offset": 0,
						"slot": "1",
						"type": "t_uint256"
					},
					{
						"astId": 9,
						"contract": "project.sol:MyToken",
						"label": "owner",
						"offset": 0,
						"slot": "2",
						"type": "t_address"
					},
					{
						"astId": 13,
						"contract": "project.sol:MyToken",
						"label": "Balance",
						"offset": 0,
						"slot": "3",
						"type": "t_mapping(t_address,t_uint256)"
					}
				],
				"types": {
					"t_address": {
						"encoding": "inplace",
						"label": "address",
						"numberOfBytes": "20"
					},
					"t_mapping(t_address,t_uint256)": {
						"encoding": "mapping",
						"key": "t_address",
						"label": "mapping(address => uint256)",
						"numberOfBytes": "32",
						"value": "t_uint256"
					},
					"t_uint256": {
						"encoding": "inplace",
						"label": "uint256",
						"numberOfBytes": "32"
					}
				}
			},
			"userdoc": {
				"kind": "user",
				"methods": {},
				"version": 1
			}
		}
	}
}